:020000040000FA
:1000000098D20020F5930100F7400300E19301002E
:10001000E1930100E1930100E1930100E19301000C
:1000200000000000000000000000000089950100B1
:10003000E193010000000000F1940100E193010050
:10004000919701009197010091970100919701000C
:1000500091970100919701009197010091970100FC
:1000600091970100919701009197010091970100EC
:1000700091970100919701009197010091970100DC
:1002500091970100919D03009197010091970100F2
:1002600091970100919701007B9D030091970100F8
:1002700091970100919701009197010091970100DA
:1002800091970100919701009197010091970100CA
:1002900091970100919701009197010091970100BA
:1002A00091970100919701009197010091970100AA
:1002B000919701009197010091970100919701009A
:1002C000919701009197010091970100919701008A
:1002D000919701009197010091970100919701007A
:1002E000919701009197010091970100919701006A
:1002F000919701009197010091970100919701005A
:100300009197010091970100919701009197010049
:100310009197010091970100919701009197010039
:100320009197010091970100919701009197010029
:100330009197010091970100919701009197010019
:100340009197010091970100919701009197010009
:1003500091970100919701009197010091970100F9
:1003600091970100919701009197010091970100E9
:1003700091970100919701009197010091970100D9
:1003800091970100919701009197010091970100C9
:1003900091970100919701009197010091970100B9
:1003A00091970100919701009197010091970100A9
:1003B0009197010091970100919701009197010099
:1003C0009197010091970100919701009197010089
:1003D00091970100659D030091970100919701009D
:1003E0009197010091970100919701009197010069
:1003F0009197010091970100919701009197010059
:100400009197010091970100919701009197010048
:100410009197010091970100919701009197010038
:100420009197010091970100919701009197010028
:100430009197010091970100919701009197010018
:100440009197010091970100919701009197010008
:1004500091970100919701009197010091970100F8
:1004600091970100919701009197010091970100E8
:0C04700091970100919701009197010005
:100480002DE9F04F2DED0C8BFFB0CDE90B2390F84B
:10049000B4300446012BB0EE40AAB0EE608AF0EE14
:1004A00041CAB0EE619A8846D0ED2C8A05D0B4EEF0
:1004B000E81AF1EE10FA40F1218608F5497948462C
:1004C00001F0F0FDF0EE400AB0EE680A3DF0DAFA15
:1004D0004846F0EE409A01F015FEF0EE400AB0EE0C
:1004E000690A3DF0B2FAD8EDC96A98EDCA7AF4EE1D
:1004F000406AD8EDCB7AF1EE10FAB4EE407A0CBF38
:1005000001230023F1EE10FAF4EE407A8DF8443026
:100510000CBF01230023F1EE10FA8DF845300CBF1B
:100520000123002325A911A8F0EE409A8DF846304A
:1005300001F002FA061E00F0128740F3838719A922
:1005400025AA049102EB860052F8043B03F26B5398
:1005500008EB83035B68824241F8043BF4D114AD9D
:10056000009508F5AC52B0EE680A494694F8B4001C
:1005700004323AAB01F0F8F912AB294634AA3AA892
:1005800001F0E0F8129BB1EE49CA4FEA430BBBF110
:10059000000F0DDD00270DF1D00A9AED000A8CEE58
:1005A000000A32F0E1F80137BB45AAEC010AF4D1A8
:1005B00094F8B430032B00F0A386002240924192BD
:1005C00042924392449245921A0600F10D875B00D5
:1005D00013F0FF0320D09A0008F5AC511C313AA863
:1005E0003CF0E2FC94F8B400B0B13AAA40A907B2DA
:1005F000830002EB800C52F8040B944541F8040B85
:10060000F9D13AAA134402EBC70743AA53F8041BD3
:100610009F4242F8041BF9D1D8EDC96A98EDCA7A15
:10062000F4EE696AD8EDCB7AF1EE10FAB4EE697A9D
:100630000CBF01230023F1EE10FAF4EE697A8DF875
:1006400044300CBF01230023F1EE10FA8DF8453041
:100650000CBF0123002325A911A88DF8463001F015
:100660006BF9002800F05B8640F3E78625A98C46ED
:100670000DF1E80E870001EB80035CF8042B7EA8E7
:1006800000EB820252F8FC2C63454EF8042BF4D1A7
:100690003AAAD01951F8042B0DF5FC7C0CEB820220
:1006A00052F8F02C8B4240F8042BF3D16EAB06933A
:1006B000D8EDC96A98EDCA7AF4EE696AD8EDCB7ABA
:1006C000F1EE10FAB4EE697A0CBF01230023F1EECB
:1006D00010FAF4EE697A8DF844300CBF0123002340
:1006E000F1EE10FA8DF845300CBF0123002325A947
:1006F00011A88DF8463001F01FF9031E039300F096
:100700001E8640F396861CAA11460592039A25ABD5
:1007100003EB820053F8042B02F25D5208EB8202D5
:100720001268984241F8042BF4D13AAB1F44002ED2
:1007300097ED00BA0DDD94ED197A049A134602EB99
:100740008602D3ED007A67EE877AE3EC017A9A426B
:10075000F7D1B5EEC08AF1EE10FA00F1368594EDCE
:10076000200A3AEE400A3DF066F9F0EE407A94ED48
:100770001E0A30EE480A17EE909A3DF05CF910EE32
:10078000107A38460FF058F9EBA3D3E900230FF0A5
:100790003BFC70B148460FF04FF9E7A3D3E90023C3
:1007A0000FF032FC28B1F5EEC0CAF1EE10FA00F1FC
:1007B0003886D4ED34BA9FEDDC7AD4ED379ADFED8C
:1007C000DB7AD4ED36AA69EE879A6AEE87AAEBEE59
:1007D000A79AD4ED2C6AE9EEA7AAB0EE006AF0EE73
:1007E0006A7AF4EEEC6AD9EE867AF1EE10FACDED83
:1007F0001F7A05D4F5EEC0CAF1EE10FAC0F2EA8510
:10080000039B05991FA89A003CF0CEFB40220021D3
:100810004EA83CF0D6FBD4ED2F7A0023FDEEE77A0C
:10082000289329932A932B9317EE903A4FF07E52F8
:10083000591E03EB81030F937EA9013B0893002E01
:1008400001EB830343F8C02C0DDD9FEDB97A049AC8
:10085000134602EB8602D3ED007A67EE877AE3EC6B
:10086000017A9A42F7D1049FB0EE4C0A38462B46E3
:10087000314622AA01F078FCD4ED017AD4ED2F5A4A
:10088000FDEEE77AD4ED006A17EE90EAFDEEE57A28
:10089000FDEEE66A129B34AA02EB830393ED006A35
:1008A0009DED345ADFEDA94A94ED1E0AB7EE007AA9
:1008B00017EE90CA384616EE907A20EE240A77EEAC
:1008C000456A37EE467ADDF888900DF1A00A0AEB0A
:1008D0008C0C4CF8049C07F1FF3C07EB8C070DF5E2
:1008E000FC7909EB870707ED315A0EF1FF370EEB64
:1008F000870E0AEB8C0C09EB8E0E0AEB8707CCED0A
:10090000006A2B46314620EE090A0EED316A87ED6A
:10091000007A22AA8DED336A01F026FC12AB29463B
:1009200016AA22A800F024FF139B002B14DD16AAA0
:1009300002EB830917461346D3ED007AF1EE677A8E
:10094000E3EC017A9945F7D197ED000A31F00CFFFD
:10095000A7EC010AB945F7D1D4ED2E7AFDEEE77A7E
:100960009FED7ACADDED285A9DED296ADDED2A6AF0
:100970009DED2B7A17EE903A25EE8C5A8DED476A55
:10098000CDED486A26EE0C6A66EE8C6A8DED497AEA
:1009900027EE0C7A169A03EB83037EA901EB8303FF
:1009A00094ED1E0A43F8D42CCDED465A8DED4A5AEB
:1009B0008DED4B6ACDED4C6A8DED4D7A01F07CFCEE
:1009C000002800F0CF835B4B93ED00CA07939FEDA7
:1009D0005F0A31462B4629EE000A049822AA30AE5F
:1009E0000A9601F0C1FB059E2946324612AB22A8A9
:1009F00000F0BEFEDDED166AB7EE007AD6ED007AA5
:100A0000D4ED2E5A36EEC76A67EEE67AFDEEE56A59
:100A100016EE906A04EB8601D1ED2F6AA6EE8C7A71
:100A200067EE877A099128A901EB860C7EA94EAF63
:100A30000DF1B00901EB8606D4ED1E2A94ED303A93
:100A4000D4ED313A94ED324AD4ED334A4D463B462B
:100A500006ED356A4CED017A30A846AAB3EC015A8E
:100A6000D3ED037AF2EC015A63EEA77A93ED076AAD
:100A700092ED037AE5EE037AD3ED0B6A2CEE077A5A
:100A8000E6EE047AA5EEA27AE6EEA47A52A999429D
:100A9000A5EC017AE0EC017AE0D104F1C0034FF05B
:100AA000000C1D46DDF818E04EA8CDE90D7E0DF1D5
:100AB000C00A5EAA04F1400BFAEC017AB9EC017AA3
:100AC000B0EC014A77EE877A264617462346D0EDEA
:100AD000034A90ED075AD0ED0B5AE5EC017AD3EDBD
:100AE000037A93ED026A64EEA77AD3ED046AE6EE28
:100AF000047A93ED057AE6EE857A3946E7EE257AB3
:100B000010339B45C1ED007A07F11007E7D1B2EC35
:100B1000014A7746D2ED034A92ED075AD2ED0B5ABD
:100B20004EAB15E0AFF3008072F97F3F17B7D138B5
:100B300000006145C40C0020FCA9F1D24D62703F59
:100B4000CDCC4CBD6666863F0000C8420000000068
:100B5000B3EC016AD3ED037A64EEA77AD3ED076AAA
:100B6000E6EE047A93ED0B7AE6EE857A3946E7EE07
:100B7000257AC1ED007A52A9994207F11007E7D111
:100B80000CF1010CBCF1040F0EF1040E94D1DDE95F
:100B90000D75099BBFEE000AD3ED2F0A3CF055FFFF
:100BA000D4ED2E7AFDEEE77AF0EE400AB7EE000AB9
:100BB00017EE90AA3CF066FFF0EE407A04EB8A0351
:100BC000C3ED2F7AD4ED2F7AFDEEE77A17EE903A47
:100BD00004EB8303D3ED2F0A1FED270A3CF035FF0A
:100BE000D4ED2F7AFDEEE77AF0EE400A17EE90AAE8
:100BF0001FED2C0A3CF046FF04EB8A0181ED2F0A21
:100C00009DED284A94ED137ADDED294A9DED2A5A8F
:100C1000DDED2B7A0DF1A00927EE044A67EE244A98
:100C200027EE055A4A4627EE277A4EABF2EC017AB8
:100C300064EE275A27EEA46A67EE856A67EE877A24
:100C40002CA9914203F1100343ED045A03ED036A0A
:100C500043ED026A43ED017AE8D104F1080A5346F4
:100C6000069A4032F5EC017AB7EC017A77EE877A92
:100C7000AA42E3EC017AF5D1D4ED2F7AFDEEE77AC2
:100C800017EE903A04EB830393ED2F0A08F63C022B
:100C9000F0EE680A404608F5A36100F085FC94ED8B
:100CA000017AD4ED007ABDEEC77AFDEEE77A17EE51
:100CB000102A17EE903A04EB820292ED2F7A04EBA1
:100CC0008303D3ED2F7ADDED3A6AA7EE4B0A039B3F
:100CD000A6EEE70A002B0EDD03991FAB049A03EB87
:100CE0008101B3EC017AF0EE407AE7EE487A99425E
:100CF000E2EC017AF5D1D4ED2F7AFDEEE77A17EE2A
:100D0000905A1FED6ECA04EB8503404693ED2F0AFF
:100D100008F6846208F53661F0EE680A8DED28CA9F
:100D20008DED29CA8DED2ACA8DED2BCA00F036FD56
:100D300094ED2E7AD4ED006AD4ED017ABDEEC77A37
:100D4000FDEEE66AFDEEE77A9DED3A6A17EE100ACF
:100D500016EE901A17EE902AB1EE466AB1EE4BBA33
:100D600028AB013D03EB850585ED000A28AD05EBB9
:100D7000800005EB810105EB820200ED01CA01ED67
:100D8000016A02ED01BAB0EE4C7A2346DDED286A25
:100D90009DED296ADDED2A5A9DED2B5AD3ED037A9C
:100DA00093ED023A66EE277AD3ED043AE6EE837AC3
:100DB00093ED054AE5EEA37AF9EC014AE5EE047AF3
:100DC00010339B45A7EEA47AE8D1D4ED127A37EE22
:100DD00027BA30AB04F11802BAEC014ADAED037A13
:100DE00066EE277ADAED074AE6EE847A9AED0B7A18
:100DF000E5EEA47AE5EE077A87EE8B7A5245A3EC0E
:100E0000017AE9D11FEDB07A039B2BEE077A002B14
:100E10001CDD0498059F03463946039D11AA00EB8B
:100E20008505F3EC017A7AEE677AE1EC017AD7ED89
:100E3000006A67EEA67AF4EEC77AF1EE10FACCBF3C
:100E4000012000209D4202F8010BEAD1039911A86C
:100E500000F050FE0546002800F07B815FEDC57A6A
:100E6000B0EE67CACDED307ACDED317ACDED327A84
:100E7000CDED337AF0EE67CAB0EE67DAF0EE67DAFE
:100E8000059BD4ED2E7A93ED007AD4ED305A94ED93
:100E9000316AD4ED326A94ED335AFDEEE77AA7EE6B
:100EA0000C5AE7EE2D5AA7EE0D6AE7EE2C6A17EE04
:100EB000903A84ED335AC4ED305A84ED316AC4ED72
:100EC000326A04EB8303D3ED2F0ABFEE000A3CF035
:100ED000BCFDD4ED2E7AFDEEE77AF0EE400AB7EED7
:100EE000000A17EE907A3CF0CDFDF0EE407A04EB6C
:100EF0008703C3ED2F7AD4ED2F7AFDEEE77A17EE54
:100F0000903A04EB8303D3ED2F0A9FEDD60A3CF011
:100F10009CFDD4ED2F7AFDEEE77AF0EE400A17EE55
:100F2000907AB7EE000A3CF0ADFD04EB87072BEE9C
:100F30000D4A6BEE2C4A6BEE0C3A2DEECB5A87ED38
:100F40002F0A0A9BD6ED025A96ED036AD6ED046A83
:100F500096ED057AF3EC017AE7EE855AA7EEC46ABE
:100F6000E7EEE46AA7EEE37A10365E4546ED025AF4
:100F700006ED016AC6ED006A86ED017AE2D155B14F
:100F80000F9B94ED147A04EB8303D3ED017A67EEA3
:100F9000877AC3ED017AD4ED2F7AFDEEE77A17EE6A
:100FA000903AB5EEC08A04EB8302D4ED240AD2ED68
:100FB0002F7AF1EE10FA77EEE07A06DDF5EEC07AE0
:100FC000F1EE10FAC8BFC2ED2F0AB5EEC08AF1EEFD
:100FD00010FA00F1D680013B84ED1E8A04EB8303F6
:100FE000D3F8C030089A0B9904EB82020B6092EDA3
:100FF000020A31F02DFCF0EE087A20EE270A0C9A56
:101000001F9B82ED000A84ED20AAC4ED34BAC4ED22
:1010100036AAC4ED379A94ED220AC4F8D43001F010
:101020004BF9002800F0AA810023C4F8983000236F
:10103000B0EE480A84F8943001F03EF9079BD3EDF6
:10104000009A002865D0FFEE007AF4EE679AF1EE80
:1010500010FA63D1D4ED2F7AFDEEE77A17EE903ACD
:1010600004EB8303D3F8BC30C4ED279AC4F8A03056
:1010700094F89430002B67D00022F0EE497AD4F82F
:10108000903084F89420C4F89C30B5EEC08AF1EE1C
:1010900010FAC4ED267AC4ED219A05DDB5EEC09AAA
:1010A000F1EE10FA00F3E48094ED2F7ABDEEC77AEA
:1010B000F5EEC07A17EE103AF1EE10FA04EB830366
:1010C00093ED2F7A05DDB5EEC09AF1EE10FA00F33C
:1010D000F080049B94991A681F9B84ED228A84ED0A
:1010E000247AC4ED238A81ED02CAC1ED038A0A6025
:1010F0004B607FB0BDEC0C8BBDE8F08FD0ED2B8A40
:10110000F4EEC18AF1EE10FA58BFF0EE418AFFF713
:10111000D4B9B5EEC08AF1EE10FA9BD4D4ED2F7A93
:10112000FDEEE77A17EE903AC4ED289A04EB8303BC
:10113000D3F8BC30C4ED299AC4F89C3094F89430AC
:10114000C4ED2A9A002B97D1D4ED267A79EE277A2E
:101150009BE7DDED30DA9DED31DADDED32CA9DED54
:1011600033CA8DE6D4ED1E7AF5EEC07AF1EE10FAB0
:1011700000F1348140F351813B4BB7EE00CA079335
:1011800025E4F5EEC07AF1EE10FA00F15F81D2EDC0
:101190002F0A9FED340A3CF058FCD4ED2F7AFDEE77
:1011A000E77AF0EE400A17EE905A9FED300A3CF0D5
:1011B00069FC04EB850383ED2F0AD4ED2F7AFDEE55
:1011C000E77A17EE903A013B06E794ED2F7AFDEEB1
:1011D000C77A17EE903A04EB8303D4ED1C6AD3ED83
:1011E0002F7AF4EEE67AF1EE10FA18D5002E7FF79A
:1011F000B6AAD4ED176A049A134602EB8602D3ED21
:10120000007A67EEA67AE3EC017A9A42F7D1FDEE16
:10121000C77A17EE903A04EB8303D3ED2F7A9FED54
:10122000137AF4EEC77AF1EE10FA7FF598AA94EDEE
:101230001D7AB4EEE77AF1EE10FA7FF590AA002E4F
:101240007FF78DAA94ED187A049A134602EB860272
:10125000D3ED007A67EE877AE3EC017A9A42F7D110
:10126000FFF77DBA00000000C40C0020A4707D3F91
:1012700094ED240A01F020F8D4ED2F7A002840F0F4
:10128000C380FDEEE77A17EE903A04EB8303D4EDCA
:10129000246A93ED2F7AB4EEE67AF1EE10FA40F27A
:1012A0004581D4ED267AF5EEC07AF1EE10FA7FF79B
:1012B00010AFD4ED1A6AF4EEE76AF1EE10FA7FF59A
:1012C00008AF94ED246AD4ED276AB4EEC76A77EECE
:1012D000666AF1EE10FA86EEA7AA00F3D080B5EEAA
:1012E000C0AAF1EE10FA00F1EF80D4ED2F7AFDEEF6
:1012F000E77A17EE903A04EB830393ED2F7AE8E652
:1013000008F5AC5308F5AD501C33143040AA53F81F
:10131000041B984242F8041BF9D1FFF77DB96EAB6C
:101320001A46B0EE690A484640A9069300F0D8FD77
:101330006E9B04273A936F9B3B93FFF7B9B908F56F
:10134000AB51B0EE690A4846183100F04FFE012259
:101350001CAB8DED1C0A05930392FFF7E6B908F567
:10136000AD51B0EE690A4846143100F03FFE19ABAA
:1013700001268DED190A0493FFF7F1B894ED220AC6
:1013800000F09AFFA0B3079BFFEE007A93ED00AA4E
:10139000B4EE67AAF1EE10FA61D0B0EE480A00F0A0
:1013A0008BFF002855D0079BFFEE007AD3ED009A03
:1013B000F4EE679AF1EE10FA7FF45AAEFFEE007A7F
:1013C000B4EE67AAF1EE10FA7FF42EAE079BD3EDD0
:1013D000009A4DE601230393FFF718BA704BBFEE56
:1013E00000CA0793FFF7F3BA4FF47F72FFF7F4B820
:1013F000D4ED227AF5EEC07AF1EE10FA2FD440F354
:10140000B980B7EE00AAC8E7FDEEE77A17EE903A8A
:1014100004EB830393ED2F7A43E7614B0793FFF7C8
:10142000D6BA07EE909A07EE107AC7EE87BAFFF7A2
:10143000C2B91CAB0593FFF778B96EAB8700069372
:10144000FFF736B919AB0493FFF789B8C2ED2F0A3D
:101450009FE6B5EEC08AF1EE10FAB7D5AEE7B0EE72
:10146000480A00F029FF00B3079BFFEE007A93EDD6
:1014700000AAB4EE67AAF1EE10FA8ED0D4E5B0EE71
:10148000690A00F019FF00287FF429AF89EE8A0A63
:101490003CF0D1FAD4ED1B7AB4EEE70AF1EE10FA83
:1014A00071DB012384F8943019E7B5EEC08AF1EEC0
:1014B00010FA7FF5B9ADB0EE480A00F0FDFE002845
:1014C00084D0BFEE00AA6EE7D4ED247AF1EE677AFD
:1014D00094ED290AC7EE8A9A00F0EEFE00284CD15E
:1014E000D4ED295A94ED155AF7EE007A89EE056A83
:1014F00077EEC67A67EEA57ADFED2A6AE9EE867A9C
:10150000F4EEE67A94ED2F7AF1EE10FABDEEC77A9A
:10151000C4ED297A48BFF0EE667A17EE103AC4EDB2
:10152000217A04EB830393ED2F7AD2E537EE667AC6
:1015300094ED2A0A87EE09AA00F0BEFE00BBD4EDA6
:101540002A6A94ED166AF7EE009A89EE067A79EE29
:10155000C79AD4ED2F7A69EEA69AFDEEE77AEAEE05
:10156000079A17EE903AC4ED2A9A04EB830393EDA1
:101570002F7A96E69FED0BAA0FE7F0EE695AB1E7D6
:10158000F0EE4A6ADDE78AEE290A3CF054FAD4ED1F
:101590001B7AB4EEE70AF1EE10FA82DA9FE600BF9A
:1015A000C40C00200000000070B52DED048BF0EE9F
:1015B000408A90ED000AB4EEE80AD0ED019AD0ED31
:1015C000C87AF1EE10FA0646B0EE609A0C4615465F
:1015D00079EEC09AF4EEE78AC0F29780F1EE10FA45
:1015E000B4EEE80A72DBF1EE10FA67D40023D5ED11
:1015F000C85A94EDC86A94EDC75AD5EDC76AB0EEE3
:10160000657AE5EE096AA6EE097A78EEE77A37EEB2
:10161000667A67EE277A87EEA98A38EE258AA6EEE3
:10162000098AFBB338EEC00A80EE290A3CF00AFAB8
:10163000F0EE007A96ED007AB7EE006A78EEC75ABF
:1016400030EE277A70EE066ABDEEC77A17EE103AD2
:10165000BDEEE67A6FF0404117EE102AC5EEA97A8A
:101660000B440A4405EB830104EB830377EEC07A55
:1016700093ED007A91ED005A27EE877A05EB82050B
:1016800004EB820436EE676A27EE858AD5ED006AA0
:10169000D4ED005AF0EE477AA6EE868AE5EE867A19
:1016A000A9EE278AB0EE680A00F006FE9FED240A34
:1016B000002808FE000ABDEC048B70BDF4EEE78A3A
:1016C000F1EE10FA4CBF0123002390E7F1EE10FA7F
:1016D0002DD4002395ED006AD4ED006A95ED017AD2
:1016E00094ED015AF0EE465AA5EE097AE6EE895AD3
:1016F00078EEC07A37EE657A67EE877A87EEA98A48
:1017000038EE068AA6EE898A8BE7F1EE10FAB4EE7F
:10171000E80ABFF668AFF1EE10FA05D5F4EEE78AF5
:10172000F1EE10FA3FF57EAF9FED058ABAE7F4EED1
:10173000E78AF1EE10FA4CBF01230023CAE700BF8D
:1017400000000000F8B5022409684F00002FC3E92B
:1017500000140BDD064615460024B6EC010A3CF0E9
:101760006AF90134A742A5EC010AF6D1F8BD00BF21
:10177000F8B501244F681C604968002F59600BDDE3
:10178000064615460024B6EC010A3CF054F9013433
:10179000A742A5EC010AF6D1F8BD00BF70B52DED4A
:1017A000048BF0EE408A90ED000AB4EEE80AD0ED2A
:1017B000019AD0EDC87AF1EE10FA0646B0EE609AC2
:1017C0000D46144679EEC09AF4EEE78AC0F297808F
:1017D000F1EE10FAB4EEE80A72DBF1EE10FA67D41B
:1017E0000023D5EDC85A94EDC86A94EDC75AD5EDDB
:1017F000C76AB0EE657AE5EE096AA6EE097A78EE78
:10180000E77A37EE667A67EE277A87EEA98A38EEAE
:10181000258AA6EE098AFBB338EEC00A80EE290AB3
:101820003CF010F9F0EE007A96ED007AB7EE006A1F
:1018300078EEC75A30EE277A70EE066ABDEEC77AA8
:1018400017EE103ABDEEE67A6FF0404117EE102A1F
:10185000C5EEA97A0B440A4405EB830104EB83032C
:1018600077EEC07A93ED007A91ED005A27EE877AF1
:1018700005EB820504EB820436EE676A27EE858A63
:10188000D5ED006AD4ED005AF0EE477AA6EE868ACE
:10189000E5EE867AA9EE278AB0EE680A00F00CFD24
:1018A0009FED240A002808FE000ABDEC048B70BDE1
:1018B000F4EEE78AF1EE10FA4CBF0123002390E723
:1018C000F1EE10FA2DD4002395ED006AD4ED006AF4
:1018D00095ED017A94ED015AF0EE465AA5EE097A9B
:1018E000E6EE895A78EEC07A37EE657A67EE877A47
:1018F00087EEA98A38EE068AA6EE898A8BE7F1EE92
:1019000010FAB4EEE80ABFF668AFF1EE10FA05D5AA
:10191000F4EEE78AF1EE10FA3FF57EAF9FED058A0F
:10192000BAE7F4EEE78AF1EE10FA4CBF0123002388
:10193000CAE700BF0000000000239C4610B4421E0E
:1019400012F8014F0CF1010001333CB1022841F8BB
:101950002C3002DD5DF8044B70478446032BEFD139
:1019600060465DF8044B70472DE9F0412DED028B88
:10197000032892B0B0EE408A0F461D461A9E00F032
:10198000918000230C930D930E930F93109311935A
:101990000306044600F1A480430013F0FF0310D0B7
:1019A0000DF11808114640469A003BF0FDFA4046FA
:1019B00000220CAB50F8041B0132A24243F8041B76
:1019C000F8DB5CB106AB03EB840203EBC4000FABA6
:1019D00052F8041B824243F8041BF9D1384600F048
:1019E00061FBF0EE400AB0EE480A3CF04BF8384696
:1019F000B0EE408A00F086FBF0EE400AB0EE480AF6
:101A00003CF023F8D7ED006A97ED017AF4EE406AD6
:101A1000D7ED027AF1EE10FAB4EE407A0CBF012352
:101A20000023F1EE10FAF4EE407A8DF800300CBF8E
:101A300001230023F1EE10FA8DF801300CBF0123D1
:101A40000023684603A9B0EE408A8DF80230FFF704
:101A500073FF002830D04FF00203C6E900031CDDFD
:101A600003A92A460C4605EB800654F8043B12AF46
:101A700007EB830353F81C3C42F8043BB242F4D119
:101A800005EBC00051F8043B12AC04EB830353F8A0
:101A9000103C42F8043B9042F4D112B0BDEC028BF2
:101AA000BDE8F0810CAB02F1180052F8041B824231
:101AB00043F8041BF9D191E7384601AA0CA9B0EE0E
:101AC000480A00F00DFA01200221019A029B3060C1
:101AD00071602A606B6012B0BDEC028BBDE8F081D2
:101AE0000DF11808114640464FF47F723BF05CFA46
:101AF0005DE700BF421EC0F101039818814204DD7A
:101B000012F8010F0028F8D170470120704700BF7C
:101B1000F0B54FF07E5C14462DED068B4FF0804EF5
:101B200006460D4640220146C4F800C089B0C4F8FC
:101B300004E004F108001F46F0EE408AB0EE60AA0F
:101B4000B0EE419A3BF030FA316C00220020A164E3
:101B5000716CDFF874C3E164C4F850C0B16CD74B4A
:101B60006165F16C1B68A165316DE165716D216680
:101B7000B16D6166F16DA166316EE166716E2167CE
:101B8000B16E84F89400A267E267C4F88020C4F8BC
:101B90008430C4F88830C4F88C30C4F89030616761
:101BA000C4F89820C4F89C30C4F8A030C4F8A4301D
:101BB000C4F8A83095EDC97AD5EDCA6AB4EEE67AD4
:101BC000F1EE10FA80F2828100F11881B0EE476ADE
:101BD00001DDB0EE667AD5EDCB7AF4EEE76AF1EE90
:101BE00010FA80F27981B4EEE76AF1EE10FA00F1B2
:101BF0002D81B4EEE77AF1EE10FA00F35581F0EEA4
:101C0000467A0323B4EEC79AF1EE10FA00F126816A
:101C1000B4EE679AF1EE10FA37FE899A05F5497627
:101C200084F8B430C4ED2B7A84ED2C7A304600F081
:101C300039FAF0EE400AB0EE490A3BF023FF304695
:101C4000B0EE408A00F05EFAF0EE400AB0EE480ACC
:101C50003BF0FBFED5EDC96A95EDCA7AF4EE406A19
:101C6000D5EDCB7AF1EE10FAB4EE407A0CBF012339
:101C70000023F1EE10FAF4EE407A8DF804300CBF38
:101C800001230023F1EE10FA8DF805300CBF01237B
:101C9000002305A901A8B0EE408A8DF80630FFF7B1
:101CA0004BFE002800F0DD800EDD05A902AB01EB44
:101CB000800051F8042B02F25D5205EB820212689B
:101CC000814243F8042BF4D1DDED029A7C4A05F2FF
:101CD0001453C4F8B820EAEE298AD3ED007AF4EE62
:101CE000E87A95EDCC0A95EDCDAAF1EE10FA3AEE30
:101CF00040AAB4EEE80A40F28480F1EE10FA00F156
:101D0000C380C0F2D780002205F5805393EDE46ACA
:101D1000D3ED6A6A93ED6B5AD3EDE57AF0EE465A4D
:101D2000E9EE057AE6EE895A38EEC07A77EEE57A82
:101D300067EE877A87EE8A8A38EE068AA6EE898A67
:101D4000CAB338EEC00A80EE0A0A3BF07BFEF0EE22
:101D5000007A70EE277AB7EE006A95EDCC7AFDEE48
:101D6000E77A70EE066A78EEC75A17EE903AFDEE03
:101D7000E66A85EE8A7A05EB830303F5805393EDDB
:101D8000E38AD3ED695A16EE903A77EE407A05EB86
:101D9000830303F5805336EE676A27EE888AD3ED16
:101DA000E36A93ED697A67EEA57AA6EE868AE7EE96
:101DB000067AA9EE278AB0EE680A00F07DFADFED18
:101DC000417A4FF08143002808FE278AC4ED349AF7
:101DD000C4ED359AC4ED369AC4ED379AC4ED307A25
:101DE000C4ED317AC4ED327A84ED338AC4F8BC3064
:101DF000C7ED008A09B0BDEC068BF0BDB0EE666A97
:101E0000E9E6F1EE10FA37D4002205F5805303F22B
:101E10007451D1ED005A93EDE36A93EDE25A03F564
:101E2000AE63D3ED006AB0EE657AE5EE096AA6EE20
:101E3000097A78EEE77A37EE667A67EE277A87EEE8
:101E40008A8A38EE258AA6EE098A79E7B4EEC79A1F
:101E5000F1EE10FA4FF003037FF5DAAEB0EE479AD9
:101E6000DCE605F5AB51B0EE480A3046183100F01B
:101E7000BDF8F0EE409A29E7F4EEE87AF1EE10FAB8
:101E8000CCBF01220022C0E7F4EEE87AF1EE10FAAE
:101E9000B4EE680ACCBF01220022F1EE10FA3FF442
:101EA00033AF9FED088A4BE7B0EE677A0323F0EE7D
:101EB000467AA7E69FED038A7DE700BFC40C0020A9
:101EC00000004040000000000000A040F0EE477A13
:101ED000B0EE479A0123A1E6F0EE467A022391E69E
:101EE000F0B52DED0A8B87B06B460546F0EE409AB3
:101EF000174601F1180251F8040B8A4243F8040B0B
:101F0000F9D1D5ED00BA95ED02BA2C4605F10C06D3
:101F1000B4EC010A00F0D0F9A0BBA642F8D195EDCF
:101F2000019AD5ED007AB4EEE79AF1EE10FADDED04
:101F300002AA9DED05AA9DED008ADDED038A0FD56D
:101F4000F0EE686AB0EE487AF0EE4A8AB0EE6A8A3D
:101F5000D5ED02BAB0EE67BAB0EE66AAF0EE47AAC7
:101F6000B0EE690ADDED01CA9DED04CA00F0A4F9E6
:101F700060B11D4B93ED008AF0EE488AC7ED018AEF
:101F800087ED008A07B0BDEC0A8BF0BD79EE6B6A75
:101F90007CEEC87A3BEE499A3CEE686A7AEEECAA8F
:101FA0003AEE4CAA87EEA67ACAEE895AC6EE267A8F
:101FB0008AEE096A75EEC75A3BEE6BBA36EE676A6F
:101FC00085EE8B5AC6EE0B5A39EEEB0AA6EEC57AB1
:101FD000E6EEE57AA5EE007AE5EE807AA7EE008AD5
:101FE000E7EE808ACAE700BFC40C0020F8B52DEDEB
:101FF000088B04460D46F0EE408A90ED00AAD1ED24
:1020000000AAD1ED029A90ED029A064600F10C0763
:10201000B6EC010A00F050F9E0B9B742F8D194EDFE
:10202000018AD4ED007AB4EEE78AF1EE10FA07D512
:1020300094ED02AAD5ED02AAD5ED009AB0EE679A0A
:10204000B0EE680A95ED01BA00F036F938B1144BDC
:1020500093ED008AB0EE480ABDEC088BF8BD38EE6F
:102060004A6A3BEE6A7A39EE488A79EECB9AC7EE35
:10207000067A89EE887A39EE4A9A37EE677AC7EEA1
:10208000096A78EECA8AE6EE667AB0EE6A8AE6EE09
:10209000A87AA7EEA88AB0EE480ABDEC088BF8BD76
:1020A000C40C002010B590ED000A044600F004F9BD
:1020B00060B194ED010A00F0FFF8F8B194ED020A66
:1020C00000F0FAF8B8B994ED020A10BD94ED000AD8
:1020D000022303F18042013A04EB820000E0032373
:1020E000F0EC017AF4EE407AF1EE10FA37FE800A55
:1020F000022BF4D010BD94ED000A10BD94ED010A3E
:102100000323E6E710B590ED000A044600F0D4F88A
:1021100060B194ED010A00F0CFF800B394ED020A2B
:1021200000F0CAF8C0B994ED020A10BD94ED000A9F
:10213000022303F18042013A04EB820000E0032312
:10214000F0EC017AF4EE407AF1EE10FA48BFB0EE0E
:10215000670A022BF3D010BD94ED000A10BD94ED78
:10216000010A0323E5E700BF2DE9F04F2DED028BB7
:1021700001290C46B0EE408A90461F4689B037D000
:10218000002929DD064601250DF1140B0DF1080A81
:102190000DF10409B6EC010A09F8015BABEC010A88
:1021A0003BF049FCA542AAEC010A05F10105F1D179
:1021B0009DED027ADDED037AF4EEC77AF1EE10FAC6
:1021C00023DC032C68D1DDED047AB4EEE77AF1EE7E
:1021D00010FA61D5022323E09DED050A3BF02BFCAC
:1021E0000123C7E9003409B0BDEC028BBDE8F08FD4
:1021F0001960596090ED007AC0EE077AC2ED007A5E
:1022000009B0BDEC028BBDE8F08F032C47D19DEDEA
:10221000047AF4EEC77AF1EE10FA4CBF02230123E0
:1022200008AA02EB830252ED038A20336B4413F8B1
:102230001C3C8DF80430B0EE680A3BF0FCFB07EE66
:10224000904A9FED197AF8EEE77A67EE877A67EEA3
:10225000807AF4EEC07AF1EE10FA4FEA84052A464D
:102260004FF0000102A81CDA3AF0ABFEC8EE287A63
:102270009DF9043008AA02EB830343ED077A01239A
:102280002A4640467C6002A93B603AF08DFE09B0C8
:10229000BDEC028BBDE8F08FDDED058ACBE70123B5
:1022A000BEE73AF08EFEEAE70000A0350B688364D3
:1022B0004B68C364704700BF08B510EE100A0DF0FC
:1022C000BBFB02460B460DF0A9FE003818BF0120EB
:1022D00008BD00BF10B1024BC0F8E430704700BF2A
:1022E0003412CDAB30B1D0F8E400034BC01AB0FAD1
:1022F00080F04009704700BF3412CDAB00285CD09D
:10230000F0B5C36804460E469DB0E3B12C4D1422CF
:10231000002128463AF055FE4FF07E520021294B0D
:1023200029706A60AA60EB602B6165698DB12846EF
:10233000FFF7D8FF50B1E822294623483AF034FE8F
:1023400000201DB0F0BD4369002BDFD16FF01500F8
:10235000F7E71D4FE822294638463AF032FE1B497E
:102360006C2201A83AF020FEE168C7F8E01023696A
:102370008BB11A6813925A6814929A681592DA68A7
:1023800016921A6917925A691A929A691B929A6A56
:102390001892DB6A199394ED021AD4ED010A94EDB8
:1023A000000A6B46084A01A8FFF7B2FB0EB1009B7A
:1023B00033600548FFF78EFFC2E76FF015007047E6
:1023C000345D00200000C07F485D0020B41204008E
:1023D0002DE9F0412DED048BA4B0CDED030A039B54
:1023E000F0EE408A002BB0EE419AF0EE619A04467E
:1023F000434D02DB6B78002B47D095ED038AB4EE9A
:10240000488AF1EE10FA3F4A3F4B12681B68079268
:10241000089302D62B78022B05D095ED018ADDEDCD
:10242000037A27EE888A394F07A93846FFF73EFF1F
:102430002B780DF12408052B34D006AEB0EE680AD7
:10244000D7F8E0103346F0EE691AB0EE491AF0EE14
:10245000480A2E48CDF8008005AAFEF711F8DFEDF6
:102460002C7A9DED050A20EE270A4CB184ED038AF3
:1024700084ED040A09990A9A0C9B21606260A360AA
:1024800024B0BDEC048BBDE8F08195ED028ADDED52
:10249000037A204A204B12681B6827EE888A07922D
:1024A0000893C0E76C221D4940463AF07DFD7B6DE4
:1024B000BA6D1B93FB6D1C923A6E1D937B6E1E9240
:1024C0003A6F1F937B6F2292BA6E2393FB6E0021AB
:1024D00020923846E02206AE21933AF072FD334650
:1024E000B0EE491AF0EE480AB0EE680A3A464046A5
:1024F000D7F8E010FFF70CFB00232B709EE700BF1E
:10250000345D0020CC0C0020C80C0020485D002069
:102510000000C842D40C0020D00C0020B4120400EB
:10252000064A074BDB7802604FF43672C371002312
:102530008280082203728271704700BF87430100C6
:1025400060140020064A074B1B7902604FF4B472F6
:10255000C371FF238280082203728271704700BF1B
:10256000E33E0100601400202DE9F743C41D00285C
:10257000064624F007040CBF0020204601F008F8AE
:10258000071E04DA6FF00B0003B0BDE8F0830EB94C
:10259000FC42F7D4374D6989288903316B7B0330BE
:1025A0002A7B89B280B20EF001FB011EEADB3C44BB
:1025B000AB78EA78002E04F10304134408BF00202E
:1025C00024F0030403FB01F118BF204601F074F965
:1025D00020440EB90028D5DB2B790446B3B1697DC0
:1025E00019446B791944FF29CCDC0330002E2A8A68
:1025F000C9B220F003070CBF0020384601F0CCF927
:10260000041EBFDB3C440EB9002CBBDB012000F0F4
:10261000B5FFC8B1A97BB9B195F82C300734002BB0
:1026200024F0070715BF402325234FF48172282289
:10263000002E14BF3846002003F044F8041EA1DB2E
:102640003C440EB9002C9DDBAB7CE3B12B799BB1F4
:102650000734002EA97C24F007070CBF0020384661
:1026600005F0E2FD041E8DDB3C4466B9002C0ADA5D
:1026700088E700BF60140020012000F07FFF10B148
:10268000AB7B002BE4D1744B1B6893B1A97981B16A
:102690000334002EEA7C24F003070CBF00203846E8
:1026A0009847041EFFF66EAF3C4416B9002CFFF6A7
:1026B00069AF6A4B1B688BB1297D79B10334002E59
:1026C00024F003070CBF002038469847041EFFF68D
:1026D00059AF3C4416B9002CFFF654AF604BD3F809
:1026E0000080B8F1000F16D0697DA1B10334002E2F
:1026F0002B7E24F0030708BF0020009318BF384644
:10270000EB7DAA7DC047041EFFF63CAF3C4416B9E2
:10271000002CFFF637AF072000F030FF98B1A97901
:1027200089B10334002EAA7E24F003070CBF0020D9
:10273000384601F01FFA041EFFF624AF3C4416B9D8
:10274000002CFFF61FAFB6FA86F895F825004FEA81
:102750005818A0B1E71CEB7F297F27F00707194421
:10276000434647F00407C9B23A4601F045FA041E51
:10277000FFF608AF3C4416B9002CFFF603AF95F8FE
:102780002610002959D00734002E2A8D24F007077F
:102790000CBF002038460EF01EFA041EFFF6F2AE03
:1027A0003C4416B9002CFFF6EDAE1EB1298D38461B
:1027B0000AF016FC95F82010002940D095F8243036
:1027C000002B3CD06A8C0734002E02F1240224F046
:1027D00007090CBF0020484692B20EF0FCF9071E14
:1027E000FFF6D0AE4F4416B9002FFFF6CBAE03373D
:1027F000AB7F297F27F0070795F82400194443464B
:1028000047F00407C9B23A4601F0E8F9041EFFF6A2
:10281000B9AE3C4416B9002CFFF6B4AE3EB16A8C9A
:10282000484695F82010083292B20AF0DFFB2B6B75
:102830005BB176B12C630020A6E60F46B5E7002E0B
:10284000F5D0002211461046EFE7002EF3D12046C6
:102850009AE62834FBD595E6AC000020B0000020B5
:10286000B40000201FB572B6194B5D6BE5B9BFF31C
:102870004F8F1849184BCA6802F4E0621343CB60CB
:10288000BFF34F8F00BFFDE7B4FBF6F4D3B20132C4
:10289000002CF9D103F110026A4402F80C4C0A2210
:1028A00033B901A8A847E2E7044600220A26EDE76B
:1028B000013BDBB203F110040DEB0406B0FBF2F4B4
:1028C00002FB1400303006F80C0C2046E8E700BF8D
:1028D0006014002000ED00E00400FA0513B5114C6F
:1028E0006846637B8DF80130237B8DF80030638967
:1028F000ADF804302389ADF8023003F035FD18B18E
:10290000E8219C20FFF7AEFF207E03F05DFD08B1BB
:10291000EB21F6E7E07D03F051FD08B1EC21F0E793
:1029200002B010BD6014002037B50546002859D00C
:102930000CF0A0FC20B94FF0FF34204603B030BDAE
:102940000BF0CAF8B0F5FA7FF5D8284C2848656333
:10295000002500F08DFD2A222946A01C84F838505D
:10296000257084F82C50256384F8395012F063FAEE
:1029700040F2011301212A4663801B23217108467E
:102980002381638140F20323A176A3810323A373F0
:102990001F2323824FF40273638244F60113E38200
:1029A000F7236384FB23238594F83B30009394F84A
:1029B0003A3002F0E5FE014620B14FF460719C20F0
:1029C000FFF750FF02F002FF044610B140F28531DC
:1029D000F5E7EFF3108572B601F038F9002DACD1B0
:1029E00062B6AAE76FF01504A7E700BF60140020E5
:1029F000DD28000037B51446002840F0D7806D4D23
:102A000095F83830032B00F0CE80C1B11AB96FF0C1
:102A1000150003B030BD0139162900F2C780DFE888
:102A200001F00C1D20355F68863B6B6E8041475579
:102A30005A8C8F9DA0A395A6AA001378AB70002096
:102A4000FFF792FD0028B7BF012302236FF00B00B0
:102A500085F83830A8BF85F83830DAE71378EB709E
:102A6000EDE71379002BD2D05379002BCFD0128809
:102A7000FB2ACCD81A2A6388C9D91B3BE02BC6D8BD
:102A80002368A288AB604C4B9A80D8E713786A79A8
:102A90009342BCD32B71D2E713782A799342B6D8EC
:102AA0006B71CCE713782A799342B0D86B75C6E77F
:102AB0001378002BABD05378013BDBB2F82BA6D8B0
:102AC00013889278EB823D4B9A70B8E7107868765D
:102AD00008F0C0FEB3E71378002B98D0AB76AEE7D2
:102AE000012000F04BFD237808B1012B8FD9AB7387
:102AF000A5E713882B82A2E71378AB719FE7072025
:102B000000F03CFD10B92378012B80D9072000F09C
:102B100035FD18B12378002B3FF479AF2378EB749F
:102B20008DE71378082B3FF672AF2B7587E7138874
:102B3000FF2B3FF66CAFAB7481E71378EB767EE743
:102B400013780E2B3FF663AF2B7778E723681C4A88
:102B50002B62636853602389138170E713786B7766
:102B60006DE71378EB776AE71378AB7767E713784D
:102B700085F82A3063E795F83B3095F839200093C3
:102B8000617895F83A30207802F0FAFD00287FF459
:102B900040AF6378012B7FF652AF0AF019FA002894
:102BA0007FF44DAF33E74FF0FF3032E76FF02C008A
:102BB0002FE700BF60140020681400207614002066
:102BC00080140020F8B50D46064630B329B311F045
:102BD000070422D1124F97F83830012B02D16FF041
:102BE0000B00F8BD032B02D14FF0FF30F9E700F0E6
:102BF0009DF80028F8D02846FFF7B6FC0028EEDB49
:102C000011F08CFC3046396B03F060FCFFF766FE78
:102C10000323204687F83830E3E76FF01500E0E73C
:102C20006014002010B5074C94F83830032B03D102
:102C300003F068FC04F0B8FB0EF0F4F8002084F810
:102C4000380010BD6014002050B1074B03F114028E
:102C500053F8041B934240F8041BF9D1002070473D
:102C60006FF01500704700BFC0E90300074B10B5B7
:102C700093F838403CB903F0F3FB0320044900F01B
:102C800075FC204610BD4FF0FF30FBE760140020BC
:102C900045250000074B10B593F838403CB903F0C8
:102CA000F3FB0220044900F061FC204610BD4FF008
:102CB000FF30FBE76014002021250000054B10B514
:102CC00093F838401CB903F08DFB204610BD4FF03F
:102CD000FF30FBE760140020054B10B593F8384037
:102CE0001CB90FF0DFFB204610BD4FF0FF30FBE7B3
:102CF00060140020054B10B593F838401CB90FF054
:102D0000D4FB204610BD4FF0FF30FBE760140020DD
:102D100002680020014B1A60704700BF9C1400201D
:102D2000014B1B68184700BF9C140020024B186819
:102D3000003818BF012070479C140020F7B50446E6
:102D40002D4E071D2C48376004F046FB022805462F
:102D500006D1294920460DF076FB284603B0F0BD88
:102D6000042842D13378092B0AD0262B1ED03146B5
:102D7000204600F043F8B0F5817F2DD3722112E098
:102D800005213E200DF032FB0028F0D1F37801A997
:102D90003279684643EA0223ADF800300DF0DAFCE0
:102DA0000028CFD053210820FFF75CFD1A213E20D8
:102DB0000DF01CFB0028DAD17368694601A8C3F343
:102DC0000F23ADF8043011238DF806300DF0EEFC22
:102DD0000028B7D06521E6E70028B3D0A178207895
:102DE0000DF004FB0028B8D1ACE70828B5D10249A2
:102DF00020460DF060FBB0E7A01400202DE9F84359
:102E00000B7805460C46013B832B00F2C782DFE8B6
:102E100013F09A009E00A2005301C5021B0121017C
:102E200027012D0133013701390149014F01840088
:102E3000C502A700C502AB003D0143015D0163016E
:102E40005701C5026901C5027C01AC01B201B8019C
:102E5000C502BE01CA01D001C50200020E02620213
:102E6000400254025C0246024E0214021A02200280
:102E700026022C02320236023A029D02A302B1025D
:102E8000B70268026E028C027402C502C502C50256
:102E9000C502C502C502C502C502C502C502C502FA
:102EA000C502C502C502C502C502C502C502C502EA
:102EB000C502C502C502C502C502C502C502C502DA
:102EC000C502C502C502C502C502C502C502C502CA
:102ED000C502C502C502C502C502C502C502C502BA
:102EE000C502C502C502C502C502C502C502C502AA
:102EF000C502C502C502C502C502C502C502C5029A
:102F0000C502C502C502C502C502C502C502C50289
:102F1000C502C5027A02800286020E23B1F80320A0
:102F20000B7042F283039A4209D1062363706678DC
:102F300021462846023632460CF070FB5AE0352115
:102F4000C720FFF78FFC0C230B700823EEE71A2332
:102F50000B700123EAE73E230B700223A370E6E720
:102F60003E230B700B23F9E7292000F071FA28B1FA
:102F70003E232370222363702923EFE70A2000F009
:102F800067FA3E2305F1080204F108012B70A0B393
:102F90000A23AB70E378EB70A3882B71A3881B0A1C
:102FA0006B71A379AB71E379EB71A368AB608B882C
:102FB00093801F22D4F80E30C5F80E30638A6B82DE
:102FC00063696B61238B2B83638BAB76638B1B0AEB
:102FD000EB76A38B2B77A38B1B0A6B77E38BAB77FB
:102FE000E38B1B0AEB7794F8203085F820306A7069
:102FF000023296B23046BDE8F8830123AB70E37825
:10300000EB70A3882B71A3881B0A6B71A379AB713A
:10301000E37903F00103EB71A368AB608B889380C5
:103020001322638BAB73638B1B0AEB73A38B2B7421
:10303000A38B1B0A6B74E38BAB74E38B1B0AEB74DF
:1030400094F820302B75D2E73E230B7004234B708D
:10305000142383E73E230B700C234B7004237DE77E
:103060003E230B700A234B70032377E73E230B703C
:103070000D234B70052371E705232370042355E7C7
:103080000823FAE730230B7003234FE73E230B702E
:103090000B234B70072361E73E230B7006234B7015
:1030A0000C235BE713230B708B789B0001333DE708
:1030B00057230B70022339E73E230B700D234DE796
:1030C0003E230B7001234B70112347E73E230B7007
:1030D00006234B70122341E73E230B7009234B70EC
:1030E00013233BE73E230370242000F0B1F90028AE
:1030F00015BF24230E2313260F263246A11CE81CDD
:10310000AB700CF08BFA721C71E73E230370252024
:1031100000F09EF9C0B125230A26AB70D4F8023026
:10312000C5F80330D4F80630C5F807306389A5F830
:103130000B30F01CE27A04F10C0128440CF06EFA1A
:10314000E27A0132324452E70F230726AB706388DC
:10315000A5F8033023796B716379AB71A379EB71B7
:10316000A37A2B72E37A6B72E3E73E230B7003239F
:103170004B701023F2E63E230B7005234B70202387
:10318000ECE63E230B7009234B702123E6E63E2339
:103190000370262000F05CF9002815BF26231823B1
:1031A00017261326A9E73E230B7004234B70272311
:1031B000D4E63E234FF0000881460370282346469C
:1031C0008370D1F8023049F8033FAA795FFA88F397
:1031D0009A4205D8721D92B2002A3FF4A8AE06E7C3
:1031E000B21D331D08F10108A118A25809EB030014
:1031F00049F80320063131F8023C063020F8023C41
:1032000010F8017C3A4606370CF008FA3E44B6B294
:10321000DBE73E232A200B7000F01AF918B12B23AC
:1032200063702A239AE61D236370192396E63E23D2
:103230000B7007234B701A2390E63E230B7020235C
:103240004B702C238AE63E230B704C234B702D23AE
:1032500084E63E230B7004234B702E237EE63E2330
:103260000B7022234B702F2378E63E230B7016231E
:103270004B70302372E63E230B7031236EE63E2303
:103280000B7032236AE63E230B7002234B7033230C
:1032900064E63E230B7014234B7022235EE63E232C
:1032A0000B700B7C5B000F334B701D2356E63E23E7
:1032B0000B7003234B701E2350E63E230B700B7DD7
:1032C0005B0013334B701B2348E63E230B70032334
:1032D0004B701C2342E63E230B7005234B701F23CB
:1032E0003CE6FF230B700B234B70A22336E6FF2333
:1032F0000B7005234B70A32330E6FF230B700D23C7
:103300004B7080232AE6FF230B700D234B70822322
:1033100024E6FF230B7002234B7083231EE6FF235A
:103320000B7004234B70842318E6FF23C21C037028
:1033300081238370D1F8033003F1280153F8040B83
:103340008B4242F8040BF9D1292250E63E230B7040
:103350000C234B70232301E6124B1B78002B14BF68
:10336000FF233E230B704FF00E034B7014BF8523D9
:103370003723F3E53E230B700A234B703523EDE52D
:10338000084B1B78002B14BFFF233E230B704FF01C
:10339000FE034B7014BF86232B23DFE540F262212E
:1033A000CEE500BFA4150020074B4FF0FF3141F6DA
:1033B000FF72C3E9001205490022C1E900221F2162
:1033C000C3E90212704700BF40000020A81500208A
:1033D0003F280CD801380B4BC0F3421200F01F00FD
:1033E00053F8223023FA00F000F001007047FF2864
:1033F00006D04038044BC0F3421200F01F00EFE744
:103400000120704740000020A8150020074B01460E
:10341000006849681A4603C240F48C221A6041F0E1
:10342000107242F4FF625A60704700BF40000020F3
:103430000246024B0068516803C37047A81500207C
:103440000246024B0068516803C3704748000020E1
:103450000138064BC0F3421200F01F0003EB820359
:103460009B6823FA00F000F0010070474000002044
:10347000014B1860704700BFB015002007B5FFF77B
:1034800093FF0EF0DAF9044B1B6813B101909847D3
:10349000019803B05DF804FBB015002070B50C88EE
:1034A000C27CA6B2C4F30E04931C058804F1180272
:1034B0001D44825AADB21A4443882A44013AB2FBF1
:1034C000F5F202FB054292B29342044B8BBF3340AC
:1034D000B34313439BB20B8070BD00BF0080FFFF5E
:1034E00008B54B1E062B04D84FF4D1711520FFF7F9
:1034F000B9F90A4B994202D940F2A311F6E719B97A
:1035000000B10160084608BD28B103680022C3E984
:1035100001211A1D1A600431F4E700BFFAFFFF7F92
:1035200010B5114B00EB41041A786389B3FBF2F339
:1035300003FB0223013A1A44B2F5706F027928BFE7
:1035400000231A448378B2FBF3F0194403FB1020E4
:10355000091AB1FBF3F003FB101313446FEA434362
:103560006FEA5343638110BDB4150020024B03EB97
:1035700080004160704700BFB4150020034B03EB8F
:1035800080004068003818BF01207047B415002043
:103590002DE9F04F10F0070A85B0054604D040F23F
:1035A00061111720FFF75EF9544F04464FF0010BED
:1035B00007F15406B146B04657F8043B8DF80BA00E
:1035C0003BB101A898479DF80A30082B01D9E821A2
:1035D000E7E79DF80B1081BB05B13160B94506F1F5
:1035E0000406E9D12DB30023DFF814E114221E46AE
:1035F0008EF8003058F82200013A60B190F804A02B
:103600008178BAF1FF0F64D14FF000078E42077145
:103610003CBFCEB20123511CECD10BB18EF800603F
:10362000142640F6FF6A58F82670002F63D1013E39
:10363000F9D2601B05B0BDE8F08F9DF80AC04A1DA5
:10364000BCF1020FE64604EB420438BF4FF0020E15
:1036500053000EF1FF300444CEF100002040BDF8CD
:1036600008406444CCF1000C013C04EA0C04B4F5BD
:10367000803F01D3F82194E775B1C31A3360997084
:103680001C8083F803B09DF80C201A71019A4FEA50
:10369000124C1A81A3F806C004FB01049EE758F8F7
:1036A0002C90B9F1000F06D099F804B0D34504BFAF
:1036B00099F802904F440CF1FF3CBCF1000FEEDA98
:1036C0003944FF29A2D90BB18EF8006040F22711CE
:1036D00067E794460027F0E707EB410309F101098A
:1036E0003846A3F80AA0FFF71BFF5FFA89F1BB7801
:1036F0008B42F1D89BE74FF00009F6E7B8150020A0
:10370000B4150020034B03EB8000806D00B180787E
:10371000704700BFB4150020F8B54FF6FF7305469B
:103720000380184B03EB8101886DB8B1867803796B
:10373000B3FBF6F206FB1233DBB219460A1D00EBAF
:103740004202B2F902705488002F09DB0131B1FB4B
:10375000F6F206FB1211C9B28B42EFD10020F8BD80
:10376000FF29FBD0C4F30E03C4782B8024B94FF497
:10377000D5711720FFF776F85380BDE8F8400DF0BB
:10378000F4B900BFB41500201D4B03EB810170B5E7
:103790008C6D054644B3030404D54FF4DC71172047
:1037A000FFF760F8014620460DF0C2F9FF280146F8
:1037B00004D02046BDE870400DF0D7B9A078B5FB25
:1037C000F0F300FB1353DBB219460A1D04EB42066B
:1037D000B6F90260002E09DB0131B1FBF0F200FB0B
:1037E0001211C9B28B42F0D1002070BDFF29FBD06D
:1037F0008B4204EB42021CBF0023E3705580D8E7E4
:10380000B4150020094B03EB810110B58C6D014606
:1038100020460DF08DF9FF28014604D02046BDE872
:1038200010400DF0A2B9002010BD00BFB41500205B
:10383000F8B5104B074603EB81018C6D014620461D
:103840000DF076F9FF28054611D0E688238953EA62
:10385000064606D0014620460DF087F90146384657
:10386000B04720462946FFF75BFE0020F8BD052043
:10387000FCE700BFB415002038B50E4B0446827932
:1038800003EB8203986D08B9052038BD8278E17991
:103890009142F9D24B1CE37100EB41035D89B3F90E
:1038A0000A30002BF3DBA5800DF05FF920600020CB
:1038B000EBE700BFB415002070B5044610F003001C
:1038C0000E4603D04E211820FEF7CCFFFFF708FE6E
:1038D000054624B1034831460460FFF701FE28463F
:1038E00070BD00BF601600202DE9F3471C4C9046C8
:1038F0001E46074622680D469DF828309DF82CA0EC
:103900001AB960211820FEF7ADFF1A46092140467A
:1039100001930CF08FFF52461FFA80F909213046BF
:103920000CF088FF80B209EB000120680DF0D5F89B
:10393000019B386018B9286002B0BDE8F08700EB41
:103940000904414609222C6038680CF037FF5346C1
:1039500009223146286802B0BDE8F0470CF02EBFBE
:103960006016002070B50E4604460CF076FF054642
:1039700030460CF072FF044B2A1821461868BDE847
:1039800070400DF0CEB800BF60160020014B1868E3
:103990000DF097B8601600201F2AF8B504460ED81F
:1039A0009200033222F00303B3F5803F2ED2194D6B
:1039B000B4B1A00711D05F210920FEF753FFFF2A01
:1039C0004FEA420304D9FF329A42A8BF1A46E8E7F9
:1039D0007C2BB8BF7C231A46E3E729706C602B81EF
:1039E00022F0030228230127120403FB01F06B6875
:1039F0000025120CEEB28E4200D3F8BD14B1261889
:103A00001F705E60104401352833F3E74FF0FF303C
:103A1000F3E700BF64160020144A002138B553684C
:103A20001478C8B2844203D8AB210920FEF71AFFEC
:103A30001846013128330578002DF2D0002181701D
:103A4000012412898161051D44709208C16100F151
:103A50002001446821F8022B994245F8044B144494
:103A6000F8D100234361037038BD00BF6416002005
:103A70000A4B1B89B3F5FF7F4FEA930006D25A0821
:103A80009B1A9BB2984238BF18467047B3F5EE6F49
:103A900001D8FF22F4E740F27263F3E764160020D6
:103AA0002DE9F8434B7880460C4602F0040602F0FC
:103AB000FB07D3B1DFB12E4BD4F804901D89B7BBFF
:103AC0000123AD084A46211D637004F1280004F16A
:103AD0002003A761E76123F8025B984241F8042BB9
:103AE0002A44F8D10023636101E0002FE3D0FF23D3
:103AF000A370002E18BF0226A3191B7D032B03D130
:103B0000022F1CBF0136F6B2A31901221A7506F165
:103B10000C02002304EB860624F812307268A370AE
:103B20004046C8F80020A8F80430BDE8F88300211A
:103B300014226170A01811F07EF9B5F5FF7F0FD245
:103B40006B08ED1AADB209EB0502C4F804902584A8
:103B5000A2606384C4F80C90A5842261E384C6E764
:103B6000B5F5EE6F4FF0FF03EBD940F27265EAE76F
:103B7000641600202DE9F84305460C46F720052180
:103B800091460CF057FE061E22DB1DB906FB04F021
:103B9000BDE8F88315F0030703D098211920FEF73C
:103BA00061FEDFF83480C8F81050A5B2A8F81460A0
:103BB000BBB29D42EAD9B8F814C04B46D8F8100001
:103BC0000522F72107FB0C0001370CF0F7FDEFE7AA
:103BD0004FF0FF30DCE700BF7816002007B5CDE9D5
:103BE00000230B4603490246081D0DF0F5F803B00B
:103BF0005DF804FB9016002013B5064CCDE90023B8
:103C00000B46024604F1080104F10C000DF0E4F843
:103C100002B010BD9016002008B54B1E032B03D92F
:103C200023219020FEF71EFE002801F1010114BFA0
:103C30000C230523C9B203EB8101034B013121F0B1
:103C40000101197008BD00BFA01600201E4B012203
:103C50004FF0FF3000211B685A60C3F80803C3F817
:103C60000015C3F80425194B1B685A60C3F80803F4
:103C7000C3F8001540F6FE71154B1648C3F8081539
:103C800001680BB2002B0BDB01F01F015B098A40BE
:103C90002033114941F82320BFF34F8FBFF36F8FBB
:103CA000026813B2002B09DB01215B0902F01F023D
:103CB000603301FA02F2084941F82320044B40F630
:103CC000FE72C3F8082570473426002030260020F5
:103CD000002008504826002000E100E00A4606487F
:103CE0003C2302F8033BC368C1F803300369536007
:103CF00043699360704700BFA8160020024B5A8C9E
:103D000002435A845B6A1847A8160020014B002121
:103D10005B6A1847A816002010B5154C08F018FD6E
:103D200007F0EAFF208DFFF7F1FF237E63B1224603
:103D3000104904F1190052F80C3BE36063685360CA
:103D4000A36893600FF0C2F90B4B228D93E8030038
:103D500004F0F2FA236B188804F01AFAA36B94F8B3
:103D6000341094F835009847002384F83C3010BD97
:103D7000A8160020DD3C0000D4160020034B93F869
:103D80003C300BB1FFF7C8BF704700BFA81600203A
:103D900070B5254C0646636C256B236495F894300A
:103DA00094F848000BB1031DD8B295F875102EB9E0
:103DB000FF2803D195F874308B4201D008F050FBF6
:103DC00095F8943053B3E06C08F0A4FD94F82C30CF
:103DD000E16C003B206C18BF012384F87030D5E9FA
:103DE0003C23C4E9182307F09FFE5EB995F87530AF
:103DF000033B012B2B8F94BF28200020184480B256
:103E000008F0CEFDA88E08F0D1FA95F874100020C5
:103E100008F026FE022384F83C3070BD206C08F0C8
:103E200079FD07F069FFE0E7A81600200138C0B26D
:103E3000032808B504D94FF48E610620FEF712FD61
:103E4000014B185C08BD00BFD8E9030008B5094B59
:103E500093F83C20022A04D040F231212720FEF7BB
:103E600001FDDA7A42F00102DA72BDE80840FFF79C
:103E700053BF00BFA816002003280B4B10B5044603
:103E800005D19A6FD278022A01D1002010BDD86FD7
:103E90000CF062FD0028F9D1032CF6D002F06AFD87
:103EA00080F00100C0B2F1E7A816002038B5204C20
:103EB0000546D4F88030984708B9012038BD94F8F9
:103EC0003430002BF9D194F82C301BB9012D03D0DC
:103ED0000020F3E7002DFBD194F88430DD06C3F316
:103EE000001005D5A36F187800F00300FFF7C4FF9A
:103EF000636CD4F888201B78C3F300132AB9B4F894
:103F00008C2013B1B2FA82F35B0994F82C10628C06
:103F100039B1910705D5A36FD878023818BF0120B1
:103F2000CCE7002AC9D10028D2D183F00100C5E72F
:103F3000A816002010B5094CD4F8883023B940F2F7
:103F4000CE412720FEF78EFCB4F88C201846216C59
:103F500003320BF063FB206410BD00BFA8160020E5
:103F60002DE9F043344C87B006460F4694F83C30B8
:103F7000012B5FFA83F904D040F2DC412720FEF7E1
:103F800071FC256B04A8A16F0CF04EFF95F88430EE
:103F90009DF8108053B10021042085F88410FFF7AC
:103FA000ADFE94F82C300BB185F88690B8F1030F74
:103FB0003BD195F88A301BB9A16F0220FFF79EFE16
:103FC000032300E0012385F88A3095F89430D3B1BB
:103FD00094F82C30216B003B94F8482091F8750040
:103FE00018BF01230392D5E93C8984F87030C4E9F5
:103FF0001889FFF71BFF00210346039A0091022056
:104000000E4907F029FD26B107B0BDE8F043FFF7E0
:1040100083BE002FF8D03046FFF748FF0028F3D1C9
:1040200007B0BDE8F043FFF7B3BE9DF81430002B96
:10403000C8D00223C7E700BFA8160020F81600204A
:104040002DE9F341744C0023256B8DF8053095F86C
:10405000942094F848300AB10433DBB295F8741018
:1040600028B9FF2B03D195F875308B4202D0FF2081
:1040700008F0F6F995F88A30032B00F2BF80DFE8EC
:1040800003F0023A9CAF94F88E306448ADF80630E5
:10409000A5F8643002F044FC80B1A16F4FF4807049
:1040A000FFF72CFE0121A36F85F88510DB781B2B11
:1040B0001DD105F1100008F00DFA18E00DF1050210
:1040C0000DF10601E06F0CF0EFFBA06798B195F8D9
:1040D000CF3083B99DF805302BB90380012183705F
:1040E000A06F0EF039FFA36FBDF806205A700123B0
:1040F00084F88F3001E04A4BA367A16F95F88B20BD
:104100000B78D20003F0030603F0F30302F0080279
:104110003046134395F88C20920002F004021343BA
:1041200023F010030B70FFF7A7FE0028A06F14BF49
:1041300010230023027890F80180134303700EF0DF
:104140001CFF95F89330071E18BF0127002B58D08D
:10415000B8F1000F55D0E06C08F0DCFB94F82C307F
:10416000E16CB3FA83F3A06F5B0984F87030D5E992
:104170003A23C4E918233A4608F0FCFD18B9A16FA8
:10418000E06C07F0D1FC30460CF06FFEE88E08F0D2
:104190000DF995F87510012008F062FCA26F01235B
:1041A000118884F8E030A4F8841091781D4A84F8CE
:1041B0003C30917002B0BDE8F081B5F864300DF18B
:1041C00005020DF10601E06FADF806300CF06CFB56
:1041D000A06700288BD140F2D1212720FEF742FBB7
:1041E0000E4802F09DFB10B940F2DB21F5E7A36F0A
:1041F000DB781B2B7FF47BAF01215AE740F2E921EA
:10420000EBE7A06F08F086FB07F076FD3946A06F5C
:1042100010F0BFF9B7E700BFA81600202017002054
:10422000381700202C170020064B10B593F83C20BF
:1042300002F0FF0422B91C7604F076F8204610BD87
:104240000C24FBE7A81600200A4B0B4A70B5064663
:104250000D461A60FFF7E8FF18B1ED212720FEF7A1
:1042600001FB064C012104F190000EF075FE66641E
:10427000E56470BDB8000020004A0000A8160020C8
:10428000024B012283F8E120704700BFA8160020EE
:10429000F0B585B0954C02AE0A9F86E8030094F80D
:1042A0003C1001F0FF0511B90AB103B127B94FF471
:1042B000BE712720FEF7D6FA96E8030004F12C0C15
:1042C00084F8E15084F8345084F8E25084F8355092
:1042D00084F8E05084F88F50658425856262C4F8C4
:1042E0008030A7638CE80300256B08F015F907F010
:1042F00003FD95F97C0008F073F9A86A08F0EEFA5E
:10430000286A08F073F995F8A40008F079F994F890
:104310002C00002840F0A38095F87420744B03EB28
:10432000820359684FF47A7301F5FA71B1FBF3F126
:104330006E3108F0F9F96F4B6F4E05F58477186808
:1043400008F0D2FA6B69E367AB69C4F8E43005F1B1
:10435000F8031868083353F8041C3246BB4203C202
:104360001646F6D15968D5F80801236B634A03C293
:1043700093F88E2093F87400A2F12601012903D945
:1043800093F88F10262972D194F82C20002A6BD133
:1043900093F80A120CF059FD064605F13C07314628
:1043A00038460EF04FFF31460EF0C0FAB5F84830EF
:1043B00095F87510984228BF184684F88E00384644
:1043C0000EF006FF95F8751095F894700429B5F86D
:1043D000506008BF03210EF0A9FA0FB9043080B273
:1043E000B04228BF3046C6B284F8E86003F0F0F867
:1043F00028B103F0F3F8B04238BF3046C6B294F8A3
:104400002C7084F84860002F55D195F893308BB10B
:10441000012395F8740084F87030D5E93A23C4E993
:104420001823FFF703FDFB220346334904200097BE
:1044300007F012FB0120FFF703FE002323606360F7
:10444000A360B5F8883063802B88238095F8A4306A
:104450002371AB6F0BB101221A6005B0F0BD95F866
:104460007520C421012064E793F8A21292E7213A53
:10447000012A0ED824290ED094F82C20B2B193F83A
:104480002E315A0710D413F0010183D103F0020139
:1044900080E724290AD194F82C203AB193F82E21F0
:1044A00093F86D301340ECE7042173E7032814BF41
:1044B0000646042671E795F8943093B1012395F8E8
:1044C000750084F87030D5E93C23C4E91823FFF760
:1044D000ADFC00220346084900920220324607F054
:1044E000BBFA0120FFF754FCA7E700BFA816002085
:1044F000D8E90300B8000020F816002010170020AB
:1045000008B5114B93F83C201AB9BDE80840FFF7F5
:1045100003BC93F82C2042B993F83C30012B12D005
:1045200040F20F212720FEF79DF993F83C20022A44
:1045300002D040F21321F5E71B6BD3F8E001BDE890
:10454000084008F001BA08BDA8160020014B1876F3
:10455000704700BFA8160020014B93F8E000704799
:10456000A8160020044B93F88F201AB9188DC0F3B9
:104570000030704701207047A8160020024B188DAC
:10458000C0F3C020704700BFA8160020014B93F86D
:10459000E2007047A81600202DE9FF41324C034687
:1045A0000E4602A8216C256B0CF03EFC13F00108AE
:1045B0009DF80C7003F002002BD0002384F8E93042
:1045C00090B1FFF7B7FC0DF1020201A9D4F8E400A5
:1045D0000CF06DFA01980CF050FA01223060394667
:1045E000D4F8E4000CF0F8F9B8F1000F0ED0D5E9DA
:1045F0003C32013342F10002C5E93C3295F88C307F
:10460000012B0CBF0023012385F88C3004B0BDE8DA
:10461000F08194F8E930032B20D801A252F823F05E
:10462000C1450000314600004B4600004B460000EB
:104630000028EBD0FFF77EFC00223946D4F8E400D6
:1046400004B0BDE8F0410CF0C7B90028DED0D4F8C2
:10465000E40004B0BDE8F0410CF025BA40F27A4124
:104660002720FEF7FFF800BFA81600202DE9F04F25
:104670000023B24C87B080468A46276BCDE90233CF
:1046800094F83C30022B04D040F25F512720FEF713
:10469000E9F8238D590606D44020FFF737FB238D18
:1046A00043F040032385216C04A80CF0BDFB9DF86A
:1046B000146097F89430B8F1000F00F045819DF830
:1046C00010909DF811B07BB107F024FB60B95EB18A
:1046D00097F88C305B4507D1012384F83530FFF71C
:1046E0001BFB07B0BDE8F08FB1B2A4F88C10F9B194
:1046F000D4F8E4000CF051F9C4F88800238D9DF83B
:10470000122043F40073238597F88B309A4200F00F
:10471000BD80256B95F88A30002B40D0022B11D13B
:1047200002A9E06F0CF0E2F828B940F21441ADE7BD
:10473000C4F88810E2E7D5E93A32013342F10002C9
:10474000C5E93A32002194F82C3085F88A103BB143
:1047500095F8863023B1102085F88610FFF7CEFA41
:1047600095F885309BB1002185F8851002F0EAF8B4
:10477000002110B940F22B4188E70820FFF7BEFA6C
:10478000D5E93A32013342F10002C5E93A3295F8EF
:104790008B30012B0CBF0023012385F88B30238D38
:1047A000002543F40063238597F88C305B456FD078
:1047B000002648464FF000090CF057FB97F893305D
:1047C000B3B194F82C3097F87400B3FA83F35B0913
:1047D00084F87030D7E93A23C4E91823FFF726FBA1
:1047E00000220346564900920420FB2207F034F9C8
:1047F000BAF1000F00F0D18008F066F9002E40F009
:10480000F2804FF0010985B194F82C3043B1B4F82F
:104810000720B4F805301343B7F88820134304D0B9
:10482000B4F809300133A4F80930B8F1000F00F0F2
:10483000E080B4F805300133A4F80530002384F893
:10484000E230404803F092FC029830B10CF015F9C8
:10485000216B0022027202F003FE039B33B1216B35
:1048600000221A720C22039802F0C8FDB9F1000F61
:104870007FF435AF238D1B063FF533AF8020FFF764
:1048800045FA238D43F0800323852AE745468BE7CD
:10489000B9F1020FD4F830B025D8B9F1000F2FD0FC
:1048A00076B3238D9BF894B043F48053238507F0AF
:1048B0008DFD042894F8E83007D1BBF1000F14BF38
:1048C0001B221F22934228BF1346B3422AD3D4F897
:1048D0008830002B3FF46CAF94F8E13063B32020B4
:1048E000FFF714FA64E7B9F1030F09D1238D012012
:1048F000216C43F480538BF884002385FFF7FEF985
:104900009BF88C30013B18BF01238BF88C30002EB4
:104910003FF44EAFDBE93C32013342F10002CBE918
:104920003C3245E794F83430012043F0100384F81A
:10493000343009F0FDF93BE746463AE7A816002077
:10494000F8160020D41600200BB107F0F7F994F800
:10495000E230013384F8E230238D43F48063238511
:1049600097F87530033B012B0FD8012009F0E0F9CF
:1049700007F02CFD04280CD11B2E4FF0000694BF2D
:104980004FF000094FF0010905E002F021FE002878
:10499000EBD10026B146354610E794F82C2094F868
:1049A000E2303AB1628C120704D5A26FD278022AA3
:1049B0003FF422AF012B3FF61FAF0120FFF776FA3D
:1049C00000287FF419AF1EB103A90120FFF7E4FD11
:1049D0000020FFF735FB002E3FF415AF03A902209E
:1049E000FFF7DAFD0FE703A90320B146FFF7D4FD77
:1049F00009E7B4F807300133A4F8073021E700BF16
:104A00004D3E00006D460000613F00007D3D00000E
:104A10002DE9F04F04461E4600230D4690462DED2D
:104A2000028B8BB090F8757006930DF09AFD94F898
:104A3000C8310B2B04D940F2FB310620FDF712FFE1
:104A4000874A32F813B094F88F308344442B1FFA0E
:104A50008BFB3DD00E2B94F88E2039D0443A534234
:104A60005341039388F001030493B8F1000F5FD121
:104A700094F80C32032B5BD1039B002B58D0B4F875
:104A8000A032AB4254D1D4F814322046B4F8E42119
:104A900041F64B59C4F80032E369C4F80432B4F863
:104AA0005A321344C4F8083206F046FED4F8A8324D
:104AB00094F8B4224B458CBF4FF000094FF0010928
:104AC00042B9E26993421BD020880FF003FD17E042
:104AD0000123C6E720880FF0FAFC18B940F23E71B6
:104AE0003020ABE7B4F8B032C1466386B4F8B232D6
:104AF0008381B4F8A032A0F80E804381013B038289
:104B000094F87E30002B41D1B9F1000F41D1D4F897
:104B1000A43284F87E90E362B4F8A2322386D4F8FB
:104B2000A832E361D4F8AC326362022384F80C3219
:104B3000B4F858A204F50A73B4F88890A5EB0A0AF1
:104B400008EE103AA5EB0909DFF818810FFA8AF38D
:104B50000FFA89F9002BB8BFD4E9902394F80CA27E
:104B6000ACBF3246C4E994235FFA8AFABFBF002380
:104B7000012284F823324B46BAF1030F00F2CE81B2
:104B8000DFE81AF013002F0172004F01B9F1000F96
:104B900005D04FF04D13636300232387B7E74FF031
:104BA0009613A4F838906363B1E794F8751094F8FD
:104BB000DE010DF0E2FE0746E06A5946384408F08F
:104BC0003FFF5946C4F81002E06908F039FF94F835
:104BD0007E3007A9002B18BF4FF0020A5044C4F8DA
:104BE000140208A807F078FF079BD4E9940100930A
:104BF000DDE908230FF0FFFF814620460CF057F94E
:104C0000D4F85C3294F87500D4F82CA0069308F020
:104C1000A9F8069B00F52240D4F81012BB3BB13036
:104C20009A444FF47A73AAEB010A3031B0FBF3F0E7
:104C30005744238EA7EB090703EB41013F1A94F871
:104C4000750006970CF040F9D4F85C22069BC8F872
:104C500000009B1ACC2B66D840F2DE4140E700BF33
:104C6000FCE9030094170020E36A5946D4F80402D3
:104C7000184408F0E5FE5946C4F81002E06908F04F
:104C8000DFFE94F87E30002B08BF4FF0000A50443E
:104C9000C4F8140220460CF00AF9B4F8E431E76ACB
:104CA000D4F804A2002B40F09780002E00F09480EE
:104CB00094F87500574408F055F800F52240D4F8F0
:104CC00010324FF47A7BB130BB3FB0FBFBF9FF1AD7
:104CD00094F87500D4F848321F44C31ED4E99012EA
:104CE000012BA7EB010774D908F03CF800F2E7307C
:104CF000B0FBFBFBA7EB09075F44D4F81012D4F814
:104D00000032D4F80822303194F8750002FB031108
:104D1000238E069703EB41010CF0D6F80123C8F867
:104D2000000084F80C32E7694FF00009D4F814321F
:104D300004F13C00A7F5A277069984F82892FF1A9F
:104D4000D8F800309F4228BF1F46D4E99432C4F8F7
:104D5000E0715B1842F10002C4E98E320EF036FABF
:104D60003844A4F85852C4F82C02D4E98E23C4E97C
:104D7000942305F0CFFE20B1D4F82C321E33C4F8B2
:104D80002C32B4F8D01184F830924D1B2DB2002D86
:104D9000C4BF022384F83032039B002B40F0C18053
:104DA000002E40F0BF8094F80C32002B00F0D7802A
:104DB000E16918EE100AD4F81432C91A0DF085FD15
:104DC00080B2002800F0CB80169B03B11880012030
:104DD000D5E04FF03E0B8DE75744D4F81032FF1A60
:104DE0008BE7D4F81422E169D4F80872891AD4F850
:104DF00000024B43218E0693B4F8E4319944FB43FF
:104E00009944D4F81032303300FB073394F875001E
:104E100002FB093301EB43010CF056F8C8F800001F
:104E200081E7E0695843069056B3B4F8E41139BB02
:104E300084F82312D4F8141201FB130A94F88E306C
:104E4000262BCDF818A003D094F88F30262B09D14B
:104E5000B4F8A032EB1A1B0404D494F8A332002B4C
:104E600018BF1F46D2B3B4F8E431BBBBD4E99023DA
:104E7000D4E9920182428B4108D340F232512FE6AD
:104E800094F8231200297FF44EAFD3E794F875000D
:104E9000C31E012B3DD907F065FF00F522404FF4FA
:104EA0007A7BB130B0FBFBF000F1AB0BD4F84832A9
:104EB00094F87500103BD4E990125A1AC31E012BC6
:104EC000924429D907F04EFF4FF47A7300F2E7308D
:104ED000B0FBF3F0AAEB0B0A50440690B4F8E411CF
:104EE0003846D4F8143249445943303149000591C9
:104EF0000BF0EAFF244A94F87E3005991060002BED
:104F00003FF411AF06ABE0690DF054FD84F82302C5
:104F100009E74FF4897BC9E73E20DBE740F24A51BD
:104F2000DEE5E6B1B4F8F81119B3B4F8FA2194F853
:104F3000FC31501CA4F8FA2102FB033399420EDD28
:104F400094F830325BB10023A4F8FA0184F83032CF
:104F500002F04AFB00F00700013084F8FC0118EE73
:104F6000101A94F8240209F06FFD20B940F2935111
:104F7000B6E50A46DBE7049B84F8203200200BB03C
:104F8000BDEC028BBDE8F08F94170020F0B504460D
:104F900085B018B9AA213020FDF764FC072900F27A
:104FA0000681DFE811F008004500450040000401DB
:104FB000F000F800020190F8203253B3B0F81E322E
:104FC000B0F8882093421ED1B0F8D421D31AA0F8AB
:104FD0008820A0F8D6312046D4E98E23C4E9902356
:104FE00006F0CAFA94F8DB31002B00F0CA800FF00B
:104FF000FFF9704B1B68002B00F0C380204605B002
:10500000BDE8F04018479A1AA0F8D621A4F88830D5
:10501000E1E7B0F81C32B0F888209B1AA0F8D6312E
:10502000B0F81C32F2E705B0BDE8F04007F060BD13
:105030000FF072FDD4E99023801A61EB030101287F
:1050400071F1000302DA40F21E61A4E76FF0010380
:1050500083424FF000038B4102DA40F21F619AE76E
:10506000E5690DB1B0FBF5F594F88F30442B14D001
:1050700094F88E20442A0AD00E2B08D0A2F14306C1
:1050800072427241B4F81E12B4F888303AB1B4F8E2
:105090001E320133A4F81E3214E00122F2E72B4441
:1050A0009BB2CA1A150454BF4B1C01339BB2A4F81F
:1050B0001E3294F821322BB9B4F81E22B4F8D43140
:1050C0009342E6D0B4F85A3202AEB4F888500133B5
:1050D000394FA4F85A32B4F8C2301D44B4F8C03085
:1050E000013DED1AADB23B685BB1B4F81E1200226F
:1050F0002046013989B29847B4F81E321844A4F802
:105100001E02B4F81E126B1A18041ED40023204687
:1051100000961A46FFF77CFC98B3012812D1B4F828
:105120001E22B4F8D011BDF808301344521A1204EC
:105130009BB204D5EA1A12F4004F18BF0B46A4F82C
:105140001E32D0E740F2766125E794F8923030467F
:105150000394002B0CBF3E23082384F8B1300123B5
:105160008DF8083002F09AFD20460FF043F9002335
:1051700094F8240284F80C3209F0EEFB202384F822
:10518000243205B0F0BD012008F0D2FD05B0BDE825
:10519000F0400BF077BE90F80C32042B01D0D021F8
:1051A000F9E6002380F80C32EBE7D621F3E6DA21AA
:1051B000F1E600BFBC000020C40000202DE9F04152
:1051C00004460E46154690F8383103F0FF071BB130
:1051D0000C273846BDE8F08101464B4809F096FBA4
:1051E00020288046F4D05822394604F588700FF004
:1051F00022FE84F81081C4F81461FF2384F838314A
:1052000036B102F009FA00F00700013086F8FC011F
:1052100002234FF00008A4F8483184F8408108F0D8
:1052200065FC493086B220460EF0F2FE0146D8B346
:105230000DF097F900F5CD6081B2284608F000FC2A
:105240002844C4F844010FF067FC30184FF0010601
:10525000A4F8268041F1000184F81861C4E95401E2
:1052600020460EF0EBFED0B1A5F2AA45314620460D
:105270000EF041FE2D1AC4F81C514FF0FF326FF0B2
:105280000043C4E9562304F5A07194F8100109F015
:10529000DBFB70BB40F2CD113020FDF7E3FA304666
:1052A000AE3D0EF0C4FFE5E72046DFF860800EF06B
:1052B00022FEAE30C4F84401B8F8040048B1E08CD6
:1052C00038B102F0A9F9B8F80430B0FBF3F202FBF0
:1052D000130006440FF020FC361841F10001C4E928
:1052E0005461002DC9D0AE1941F10001C4E95661E5
:1052F000C9E7D4E9542300212046C4E94A23C4E97C
:105300004C230EF0C4FE64E7970F010094170020B1
:10531000F0B5002385B0CDE9003303238DF80630C6
:105320006846FEF7A9FA88B11F4E01230027B37122
:105330000223CDE902778DF80E3002A8FEF79CFA21
:105340000546C8B10023B37105B0F0BD00980BF05D
:1053500009FFE5E790F8240209F06AFC94F82402BA
:1053600009F058FE94F8240284F80C5209F0F4FA7B
:10537000202384F82432DBE7029B002BDDD093F856
:105380002422202AD9D018884FF6FF739842D9D00A
:105390000221FEF737FA04460028DBD14FF49B7157
:1053A0003020FDF75FFA00BF94170020044B002265
:1053B000DA719A7142F210729A80FFF7A9BF00BFAA
:1053C00094170020014BD871704700BF941700203C
:1053D00008B507F001F8044B9A6882422ABF987911
:1053E000002080F0010008BD94170020F0B50446AD
:1053F00085B090F8DB3103F0FF05002B6ED190F8FB
:105400000C32032B6AD10FF087FBD4E99023801A6A
:1054100061EB0301012871F100035FDB6FF0010311
:10542000834275EB010304DA40F2C7513020FDF7E7
:1054300019FAE269B4F888300AB1B0FBF2F201332C
:1054400013449BB2A4F81C32B4F8D431B4F81C2233
:105450009B1A1BB2002B41DD94F8240209F0E8FBF3
:1054600000283BD0FF2384F82132B4F8C2300DF17C
:105470000E07B4F888501A4E1D44B4F8C030013DF0
:10548000ED1AADB2336863B1B4F81C1200222046A5
:10549000013989B29847B4F81C32184480B2A4F894
:1054A0001C02B4F81C32EB1A1B0417D4B4F81C12FB
:1054B00000230122204689B20097FFF7A9FA68B1BC
:1054C000012808D1B4F81C32BDF80E2013449BB259
:1054D000A4F81C32D6E740F20E61A7E705B0F0BD94
:1054E000C40000202DE9F7430446062900F2A480F9
:1054F000DFE801F0042714242B309D00504B9B79EA
:1055000003F0FF0253B900920123B0F8D411FFF762
:105510007FFA30B140F2DC61302031E0042384F8BE
:105520000C3207F071F909F009F90023B4F888206A
:10553000A4F85A32A4F81E2284F8213203B0BDE840
:10554000F083032380F80C32F8E70FF004F8C4E985
:105550009201F3E73B4B1B681BB10246D0E9920175
:10556000984713212088FEF74DF900285DD094F864
:105570007530022B57D005D8012B08D0CD21B4208F
:10558000FDF770F9033B012BF8D81E3000E00A301C
:10559000858894F87530D4F81422033BDFF8A09086
:1055A000012BE36994BF2827002707F58077AF42D6
:1055B00034BFED1B0025A9188B428ABF9B1A00251A
:1055C0005D1B99F807301BB9E36B9D4228BF1D4650
:1055D000D4F8E06104F13C000DF0F8FD06EB0008A2
:1055E000022009F073FC0221A5EB080626EAE67604
:1055F000864228BF0646304609F0AEFC00B9B044EA
:1056000001233A46414620460DF069FED4F8E031C8
:10561000C9F80800E069184409F02AFC00288DD177
:1056200040F28A3178E71430B2E79625B1E703B04B
:10563000BDE8F0430BF03BBC4FF4F3616CE700BFF7
:1056400094170020C0000020012A70B505460C46C2
:10565000164615D0022A18D042BB06F0BDFE3246CF
:10566000014620460BF04EFD2A46124994F81001DF
:1056700008F04EFB40B940F2AB713020FDF7F2F874
:1056800006F0AAFEC5F85C0270BDD0F85C120122DB
:1056900020460BF037FD2A46064994F8100108F021
:1056A00037FB0028F0D140F2BC71E6E740F2C2714E
:1056B000E3E700BF8D4F0000014B9880704700BFAB
:1056C00094170020343270B5054692B20C461E463F
:1056D0000BF081FA25B1034A5560147456741470A6
:1056E00070BD00BFB8170020014B1870704700BF95
:1056F00051000020014B5870704700BFD0170020A8
:105700000138C0B2032808B504D940F24931062057
:10571000FDF7A8F8014B185C08BD00BFA8EA03001C
:105720000138C0B2032808B504D940F24931062037
:10573000FDF798F8014B185C08BD00BF44EB03006F
:105740000138C0B2032808B504D940F24931062017
:10575000FDF788F8014B185C08BD00BFC0EB0300E3
:105760000138C0B2032808B504D940F249310620F7
:10577000FDF778F8014B185C08BD00BFD0EC0300C2
:1057800038B50446013803281AD8481E032817D80C
:105790009DF810000C4D0028697014BF02200020F5
:1057A0000129214643EA00031046AC70EB7014BF98
:1057B0000A2300232A71AB72FEF72EFA002038BDAF
:1057C0006FF01500FBE700BF86040020084A537AFB
:1057D00050B143F00403002953724FF0000014BF8E
:1057E000072300235371704703F0FB03F3E700BF67
:1057F000860400202DE9F0410F46063940F67A452F
:10580000BDF8188089B2BDF82460A9423ED8941F23
:10581000A4B2AC428CBF002401242546002837D115
:105820001E49097969B15CB96FF4506039180629CD
:1058300006D86FF450615418062C8CBF0024012444
:10584000254605B3974226D803FB0666B6F5FA7FD0
:1058500021DCA8F10A0340F676409BB283421AD8B5
:1058600010460BF04BFD42F21073704303FB08F837
:10587000B8EB400F0FD9BDF81C50BDF82000854291
:105880008CBF002501252846BDE8F0810024C4E72F
:1058900090F87D10C6E70025F5E700BF98180020B6
:1058A000304BF0B5B0F868700C4611461A88B0F865
:1058B000666085B097425D8828BF1746964228BF2C
:1058C00016461B2E2ED0B5F5A47F2DD040F64803EA
:1058D00001AA9D4228BF1D460BF040FDBDF80A30CD
:1058E0009F4228BF1F46BDF80C30AB42E78028BF5F
:1058F0002B462381BDF806309E4228BF1E46BDF8C8
:1059000008309D42668028BF1D46A580FF23237076
:10591000E3881B3B9BB2E02B08D940F2776139202A
:10592000FCF7A0FF1B2FCED105B0F0BD63881B3B59
:105930009BB2E02B02D940F27961F0E7238940F66F
:105940004812A3F5A4739BB2934202D940F27B6143
:10595000E5E7A388A3F5A4739BB29342E4D940F290
:105960007D61DCE7981800202DE9F341002304460F
:105970000E46174600F10A08CDE900336846FDF7E8
:105980007BFF08B1002015E0009DA542F6D030460F
:10599000EB1C0BF0ADFC3946AA780CF029FF00286F
:1059A000ECD005F10A036A7A4146607A0CF020FFD8
:1059B0000028E3D002B0BDE8F0810000054A13469C
:1059C00092F8202053F8211B11F8030BC0F380102C
:1059D0000CF00EBF141E0020114BF7B59C7F06463D
:1059E000DD7F1F8C14B900F0F5FD0446A5B900F069
:1059F000F1FD054614B9092003B0F0BD0028FAD026
:105A0000304601A98DF804408DF80550ADF80670B8
:105A10000CF0AFFF0020EFE7002CF1D1EBE700BF67
:105A20005C1D002010B503210020FDF7EBFE0446AD
:105A300070B90321FDF7A8FE044620B940F2913168
:105A40003920FCF70FFF034B93F960100EF00DFAAD
:105A5000204610BD9818002038B50CF0C8FE00256F
:105A600001F0D0F8234C00F0C3FD0DF007FB01F06E
:105A700055FA02F0EBFB01F085FA012000F060FD21
:105A80001D4B1E4A29461D601D4BA4F854501A6038
:105A90001B22DD839A80F9221D8483F822501D7712
:105AA000184B22835868184A1B8922601422E0612F
:105AB00004F124002384A576A580A5750FF0BBF919
:105AC000012342F2107204F13A0084F8565084F82F
:105AD000243084F83930C4E90A220EF0EEFC04F1D7
:105AE00044000EF00FFD0022002384F87050C4E93A
:105AF0001A2338BD98180020C800002003021B009C
:105B00005C1D002044EB03001B004801064B41F6DE
:105B10004C521B215A611974C3E9022241F28832A6
:105B20009A61FFF799BF00BF5C1D002073B53B4D24
:105B30000446AB68C3633A4B1B79003B18BF012393
:105B400080F87D30374BC3610BF043FB064600F015
:105B50003BFD2B7C10F0200FA4F8466084F8443005
:105B6000314B0EBF1B22AA8869881B6814BFA4F89A
:105B70006610A4F86620A4F868201BB194F97C1084
:105B800020889847294B1B6813B1294920889847DA
:105B90002046FFF721FF064650B102212088FDF77D
:105BA00047FE002836D040F224613920FCF75AFE27
:105BB000012363861F4B1B6813B101462088984759
:105BC0001D4B1B6813B10021208898471B4B1B6895
:105BD0000BB1208898471A4B1B680BB12088984757
:105BE000697804F11400AB886A880191033329783D
:105BF00003329BB2009192B204F11801FDF774FEDA
:105C0000636913B940F24E61CFE7A3691BB940F253
:105C10004F61CAE70926304602B070BD5C1D002006
:105C20009818002000093D00DC000020D000002072
:105C3000A0180020EC000020E0000020E40000207C
:105C4000E80000202DE9F34105460E460EF04EF91E
:105C5000002800F0AF8028460EF0DAF930B1B6F82F
:105C60000130013B7F2B01D9122404E028460EF0BD
:105C7000D3F920B90C24204602B0BDE8F0812846B3
:105C80000BF0F3FA0028F5D128460EF0D8F880463C
:105C90000028EFD1284603F0FFFE0028E4D042F2AE
:105CA0001073B6F80170F17828465F430EF09BF947
